{
  "contractName": "Library",
  "abi": [
    {
      "constant": true,
      "inputs": [
        {
          "name": "",
          "type": "address"
        }
      ],
      "name": "status",
      "outputs": [
        {
          "name": "",
          "type": "bool"
        }
      ],
      "payable": false,
      "stateMutability": "view",
      "type": "function"
    },
    {
      "constant": true,
      "inputs": [
        {
          "name": "",
          "type": "address"
        }
      ],
      "name": "Verifiers",
      "outputs": [
        {
          "name": "",
          "type": "bool"
        }
      ],
      "payable": false,
      "stateMutability": "view",
      "type": "function"
    },
    {
      "constant": true,
      "inputs": [
        {
          "name": "",
          "type": "address"
        }
      ],
      "name": "Publishers",
      "outputs": [
        {
          "name": "",
          "type": "bool"
        }
      ],
      "payable": false,
      "stateMutability": "view",
      "type": "function"
    },
    {
      "constant": true,
      "inputs": [],
      "name": "verifiersCount",
      "outputs": [
        {
          "name": "",
          "type": "uint256"
        }
      ],
      "payable": false,
      "stateMutability": "view",
      "type": "function"
    },
    {
      "constant": true,
      "inputs": [],
      "name": "booksCount",
      "outputs": [
        {
          "name": "",
          "type": "uint256"
        }
      ],
      "payable": false,
      "stateMutability": "view",
      "type": "function"
    },
    {
      "constant": true,
      "inputs": [],
      "name": "publishersCount",
      "outputs": [
        {
          "name": "",
          "type": "uint256"
        }
      ],
      "payable": false,
      "stateMutability": "view",
      "type": "function"
    },
    {
      "inputs": [],
      "payable": false,
      "stateMutability": "nonpayable",
      "type": "constructor"
    },
    {
      "constant": false,
      "inputs": [
        {
          "name": "_publisherAddress",
          "type": "address"
        },
        {
          "name": "_publisherName",
          "type": "string"
        }
      ],
      "name": "addPublisher",
      "outputs": [],
      "payable": false,
      "stateMutability": "nonpayable",
      "type": "function"
    },
    {
      "constant": true,
      "inputs": [
        {
          "name": "_publisherId",
          "type": "uint256"
        }
      ],
      "name": "getPublisher",
      "outputs": [
        {
          "name": "",
          "type": "string"
        },
        {
          "name": "",
          "type": "address"
        }
      ],
      "payable": false,
      "stateMutability": "view",
      "type": "function"
    },
    {
      "constant": false,
      "inputs": [
        {
          "name": "_publisherAddress",
          "type": "address"
        },
        {
          "name": "_bookName",
          "type": "string"
        },
        {
          "name": "_authorName",
          "type": "string"
        },
        {
          "name": "_publisherId",
          "type": "uint256"
        }
      ],
      "name": "addBook",
      "outputs": [],
      "payable": true,
      "stateMutability": "payable",
      "type": "function"
    },
    {
      "constant": true,
      "inputs": [
        {
          "name": "_bookId",
          "type": "uint256"
        }
      ],
      "name": "getBook",
      "outputs": [
        {
          "name": "",
          "type": "string"
        },
        {
          "name": "",
          "type": "string"
        },
        {
          "name": "",
          "type": "uint256"
        }
      ],
      "payable": false,
      "stateMutability": "view",
      "type": "function"
    },
    {
      "constant": false,
      "inputs": [
        {
          "name": "_verifierAddress",
          "type": "address"
        },
        {
          "name": "_verifierName",
          "type": "string"
        }
      ],
      "name": "addVerifier",
      "outputs": [],
      "payable": false,
      "stateMutability": "nonpayable",
      "type": "function"
    },
    {
      "constant": true,
      "inputs": [
        {
          "name": "_verifierId",
          "type": "uint256"
        }
      ],
      "name": "getVerifier",
      "outputs": [
        {
          "name": "",
          "type": "string"
        },
        {
          "name": "",
          "type": "address"
        }
      ],
      "payable": false,
      "stateMutability": "view",
      "type": "function"
    },
    {
      "constant": false,
      "inputs": [
        {
          "name": "_verifierAddress",
          "type": "address"
        }
      ],
      "name": "addLegitVerifier",
      "outputs": [],
      "payable": false,
      "stateMutability": "nonpayable",
      "type": "function"
    },
    {
      "constant": true,
      "inputs": [
        {
          "name": "_publisherAddress",
          "type": "address"
        }
      ],
      "name": "getLegitVerifier",
      "outputs": [
        {
          "name": "",
          "type": "bool"
        }
      ],
      "payable": false,
      "stateMutability": "view",
      "type": "function"
    },
    {
      "constant": true,
      "inputs": [
        {
          "name": "_publisherAddress",
          "type": "address"
        }
      ],
      "name": "containsPublisher",
      "outputs": [
        {
          "name": "",
          "type": "bool"
        }
      ],
      "payable": false,
      "stateMutability": "view",
      "type": "function"
    },
    {
      "constant": true,
      "inputs": [
        {
          "name": "_verifierAddress",
          "type": "address"
        }
      ],
      "name": "containsVerifier",
      "outputs": [
        {
          "name": "",
          "type": "bool"
        }
      ],
      "payable": false,
      "stateMutability": "view",
      "type": "function"
    }
  ],
  "bytecode": "0x6080604052670de0b6b3a764000060015534801561001c57600080fd5b50336000806101000a81548173ffffffffffffffffffffffffffffffffffffffff021916908373ffffffffffffffffffffffffffffffffffffffff16021790555061138b8061006c6000396000f3006080604052600436106100e6576000357c0100000000000000000000000000000000000000000000000000000000900463ffffffff1680633561bc27146100eb5780633b2b167a146101c45780633db67b571461024d57806344b3f803146102a85780635804f78414610303578063645b8b1b146103cf5780637340792a1461042a57806375befc60146104b357806379d2ef731461050e5780637f05c82814610569578063969cb7c314610594578063977081d61461066d578063e0ff5b8b146106b0578063e1cb4d03146107c9578063f1ff4ba1146107f4578063fe9bb3871461081f575b600080fd5b3480156100f757600080fd5b506101166004803603810190808035906020019092919050505061087a565b60405180806020018373ffffffffffffffffffffffffffffffffffffffff1673ffffffffffffffffffffffffffffffffffffffff168152602001828103825284818151815260200191508051906020019080838360005b8381101561018857808201518184015260208101905061016d565b50505050905090810190601f1680156101b55780820380516001836020036101000a031916815260200191505b50935050505060405180910390f35b3480156101d057600080fd5b5061024b600480360381019080803573ffffffffffffffffffffffffffffffffffffffff169060200190929190803590602001908201803590602001908080601f0160208091040260200160405190810160405280939291908181526020018383808284378201915050505050509192919290505050610970565b005b34801561025957600080fd5b5061028e600480360381019080803573ffffffffffffffffffffffffffffffffffffffff169060200190929190505050610af1565b604051808215151515815260200191505060405180910390f35b3480156102b457600080fd5b506102e9600480360381019080803573ffffffffffffffffffffffffffffffffffffffff169060200190929190505050610b47565b604051808215151515815260200191505060405180910390f35b6103cd600480360381019080803573ffffffffffffffffffffffffffffffffffffffff169060200190929190803590602001908201803590602001908080601f0160208091040260200160405190810160405280939291908181526020018383808284378201915050505050509192919290803590602001908201803590602001908080601f016020809104026020016040519081016040528093929190818152602001838380828437820191505050505050919291929080359060200190929190505050610b9d565b005b3480156103db57600080fd5b50610410600480360381019080803573ffffffffffffffffffffffffffffffffffffffff169060200190929190505050610cb6565b604051808215151515815260200191505060405180910390f35b34801561043657600080fd5b506104b1600480360381019080803573ffffffffffffffffffffffffffffffffffffffff169060200190929190803590602001908201803590602001908080601f0160208091040260200160405190810160405280939291908181526020018383808284378201915050505050509192919290505050610cd6565b005b3480156104bf57600080fd5b506104f4600480360381019080803573ffffffffffffffffffffffffffffffffffffffff169060200190929190505050610e57565b604051808215151515815260200191505060405180910390f35b34801561051a57600080fd5b5061054f600480360381019080803573ffffffffffffffffffffffffffffffffffffffff169060200190929190505050610e77565b604051808215151515815260200191505060405180910390f35b34801561057557600080fd5b5061057e610e97565b6040518082815260200191505060405180910390f35b3480156105a057600080fd5b506105bf60048036038101908080359060200190929190505050610e9d565b60405180806020018373ffffffffffffffffffffffffffffffffffffffff1673ffffffffffffffffffffffffffffffffffffffff168152602001828103825284818151815260200191508051906020019080838360005b83811015610631578082015181840152602081019050610616565b50505050905090810190601f16801561065e5780820380516001836020036101000a031916815260200191505b50935050505060405180910390f35b34801561067957600080fd5b506106ae600480360381019080803573ffffffffffffffffffffffffffffffffffffffff169060200190929190505050610f93565b005b3480156106bc57600080fd5b506106db60048036038101908080359060200190929190505050611049565b604051808060200180602001848152602001838103835286818151815260200191508051906020019080838360005b8381101561072557808201518184015260208101905061070a565b50505050905090810190601f1680156107525780820380516001836020036101000a031916815260200191505b50838103825285818151815260200191508051906020019080838360005b8381101561078b578082015181840152602081019050610770565b50505050905090810190601f1680156107b85780820380516001836020036101000a031916815260200191505b509550505050505060405180910390f35b3480156107d557600080fd5b506107de6111d6565b6040518082815260200191505060405180910390f35b34801561080057600080fd5b506108096111dc565b6040518082815260200191505060405180910390f35b34801561082b57600080fd5b50610860600480360381019080803573ffffffffffffffffffffffffffffffffffffffff1690602001909291905050506111e2565b604051808215151515815260200191505060405180910390f35b60606000600a6000848152602001908152602001600020600001600a600085815260200190815260200160002060010160009054906101000a900473ffffffffffffffffffffffffffffffffffffffff16818054600181600116156101000203166002900480601f0160208091040260200160405190810160405280929190818152602001828054600181600116156101000203166002900480156109605780601f1061093557610100808354040283529160200191610960565b820191906000526020600020905b81548152906001019060200180831161094357829003601f168201915b5050505050915091509150915091565b610978611238565b8273ffffffffffffffffffffffffffffffffffffffff163373ffffffffffffffffffffffffffffffffffffffff161415156109b257600080fd5b6001600b60008573ffffffffffffffffffffffffffffffffffffffff1673ffffffffffffffffffffffffffffffffffffffff16815260200190815260200160002060006101000a81548160ff02191690831515021790555081816000018190525082816020019073ffffffffffffffffffffffffffffffffffffffff16908173ffffffffffffffffffffffffffffffffffffffff1681525050806008600060055481526020019081526020016000206000820151816000019080519060200190610a7d929190611268565b5060208201518160010160006101000a81548173ffffffffffffffffffffffffffffffffffffffff021916908373ffffffffffffffffffffffffffffffffffffffff160217905550905050600560008154809291906001019190505550600260008154809291906001019190505550505050565b6000600d60008373ffffffffffffffffffffffffffffffffffffffff1673ffffffffffffffffffffffffffffffffffffffff16815260200190815260200160002060009054906101000a900460ff169050919050565b6000600b60008373ffffffffffffffffffffffffffffffffffffffff1673ffffffffffffffffffffffffffffffffffffffff16815260200190815260200160002060009054906101000a900460ff169050919050565b610ba56112e8565b8473ffffffffffffffffffffffffffffffffffffffff163373ffffffffffffffffffffffffffffffffffffffff16148015610bec575060011515610be8336111e2565b1515145b8015610bfa57506001543410155b1515610c0557600080fd5b6000809054906101000a900473ffffffffffffffffffffffffffffffffffffffff1673ffffffffffffffffffffffffffffffffffffffff166108fc6001549081150290604051600060405180830381858888f19350505050158015610c6e573d6000803e3d6000fd5b50838160000181905250828160200181905250818160400181815250506005600081548092919060010191905055506003600081548092919060010191905055505050505050565b600d6020528060005260406000206000915054906101000a900460ff1681565b610cde61130a565b8273ffffffffffffffffffffffffffffffffffffffff163373ffffffffffffffffffffffffffffffffffffffff16141515610d1857600080fd5b6001600c60008573ffffffffffffffffffffffffffffffffffffffff1673ffffffffffffffffffffffffffffffffffffffff16815260200190815260200160002060006101000a81548160ff02191690831515021790555081816000018190525082816020019073ffffffffffffffffffffffffffffffffffffffff16908173ffffffffffffffffffffffffffffffffffffffff168152505080600a600060075481526020019081526020016000206000820151816000019080519060200190610de3929190611268565b5060208201518160010160006101000a81548173ffffffffffffffffffffffffffffffffffffffff021916908373ffffffffffffffffffffffffffffffffffffffff160217905550905050600760008154809291906001019190505550600460008154809291906001019190505550505050565b600c6020528060005260406000206000915054906101000a900460ff1681565b600b6020528060005260406000206000915054906101000a900460ff1681565b60045481565b60606000600860008481526020019081526020016000206000016008600085815260200190815260200160002060010160009054906101000a900473ffffffffffffffffffffffffffffffffffffffff16818054600181600116156101000203166002900480601f016020809104026020016040519081016040528092919081815260200182805460018160011615610100020316600290048015610f835780601f10610f5857610100808354040283529160200191610f83565b820191906000526020600020905b815481529060010190602001808311610f6657829003601f168201915b5050505050915091509150915091565b3373ffffffffffffffffffffffffffffffffffffffff166000809054906101000a900473ffffffffffffffffffffffffffffffffffffffff1673ffffffffffffffffffffffffffffffffffffffff16141515610fee57600080fd5b6001600d60008373ffffffffffffffffffffffffffffffffffffffff1673ffffffffffffffffffffffffffffffffffffffff16815260200190815260200160002060006101000a81548160ff02191690831515021790555050565b606080600060096000858152602001908152602001600020600001600960008681526020019081526020016000206001016009600087815260200190815260200160002060020154828054600181600116156101000203166002900480601f0160208091040260200160405190810160405280929190818152602001828054600181600116156101000203166002900480156111265780601f106110fb57610100808354040283529160200191611126565b820191906000526020600020905b81548152906001019060200180831161110957829003601f168201915b50505050509250818054600181600116156101000203166002900480601f0160208091040260200160405190810160405280929190818152602001828054600181600116156101000203166002900480156111c25780601f10611197576101008083540402835291602001916111c2565b820191906000526020600020905b8154815290600101906020018083116111a557829003601f168201915b505050505091509250925092509193909250565b60035481565b60025481565b6000600b60008373ffffffffffffffffffffffffffffffffffffffff1673ffffffffffffffffffffffffffffffffffffffff16815260200190815260200160002060009054906101000a900460ff169050919050565b604080519081016040528060608152602001600073ffffffffffffffffffffffffffffffffffffffff1681525090565b828054600181600116156101000203166002900490600052602060002090601f016020900481019282601f106112a957805160ff19168380011785556112d7565b828001600101855582156112d7579182015b828111156112d65782518255916020019190600101906112bb565b5b5090506112e4919061133a565b5090565b6060604051908101604052806060815260200160608152602001600081525090565b604080519081016040528060608152602001600073ffffffffffffffffffffffffffffffffffffffff1681525090565b61135c91905b80821115611358576000816000905550600101611340565b5090565b905600a165627a7a72305820a1ab64add6f5428657635f9ec6cfb6a8e56a0760e081a6fc83a23a5699b3ee280029",
  "source": "pragma solidity ^0.4.22;\n\ncontract Library {\n    \n    //Table for the list of Publishers\n    struct Publisher {\n        string publisherName;\n        address publisherAddress;\n    }\n    \n    // Table for the list of Books\n    struct Book {\n        string bookName;\n        string authorName;\n        uint publisherId;\n    }\n    \n    // table for the list of Verifiers\n    struct Verifier {\n        string verifierName;\n        address verifierAddress;\n    }\n    \n    // address of the msg.sender\n    address owner;\n    \n    // amount of ether for buying a book\n    uint amount = 1 ether;\n    \n    // returns the length of number of registered publishers/books/verifiers\n    uint public publishersCount;\n    uint public booksCount;\n    uint public verifiersCount;\n    \n    // reference index for struct\n    uint256 publisherId;\n    uint256 bookId;\n    uint256 verifierId;\n    \n    // input integer returns the struct\n    mapping(uint => Publisher) publishers;\n    mapping(uint => Book) books;\n    mapping(uint => Verifier) verifiers;\n    \n    // checker if input address is publisher or verifier\n    mapping(address => bool) public Publishers;\n    mapping(address => bool) public Verifiers;\n    \n    // check if the address of verifier is legit/trusted by the system  \n    mapping(address => bool) public status; \n    \n    // initialization\n    constructor() public {\n        owner = msg.sender;\n    }\n    \n    // requirements for functions that owner can only add\n    modifier onlyOwner {\n        require(owner==msg.sender);\n        _;\n    }\n    \n    // add publisher\n    //required existing address and desired publisher name\n    function addPublisher(address _publisherAddress, string _publisherName) public {\n        require(msg.sender == _publisherAddress);\n        Publisher memory newPublisher;\n        \n        Publishers[_publisherAddress] = true;\n        \n        newPublisher.publisherName = _publisherName;\n        newPublisher.publisherAddress = _publisherAddress;\n        \n        publishers[publisherId] = newPublisher;\n        \n        publisherId++;\n        publishersCount++;\n    }\n    \n    // get specific publisher using it's id\n    function getPublisher(uint _publisherId) view public returns(string, address) {\n        return (publishers[_publisherId].publisherName, publishers[_publisherId].publisherAddress);\n    }\n    \n    // add book\n    // required existing publisher address and title of book\n    function addBook(address _publisherAddress, string _bookName, string _authorName, uint _publisherId) public payable {\n        require(msg.sender == _publisherAddress && containsPublisher(msg.sender) == true && msg.value >= amount);\n        owner.transfer(amount);\n        \n        Book memory newBook;\n        \n        newBook.bookName = _bookName;\n        newBook.authorName = _authorName;\n        newBook.publisherId = _publisherId;\n        \n        publisherId++;\n        booksCount++;\n    }\n    \n    // get specific book using it's book id\n    function getBook(uint _bookId) view public returns(string, string, uint) {\n        return (books[_bookId].bookName,books[_bookId].authorName,books[_bookId].publisherId);\n    }\n    \n    // add verifier\n    // input existing address and desired verifier name\n    function addVerifier(address _verifierAddress, string _verifierName) public {\n        require(msg.sender == _verifierAddress);\n        Verifier memory newVerifier;\n        \n        Verifiers[_verifierAddress] = true;\n        \n        newVerifier.verifierName = _verifierName;\n        newVerifier.verifierAddress = _verifierAddress;\n        \n        verifiers[verifierId] = newVerifier;\n        \n        verifierId++;\n        verifiersCount++;\n    }\n    \n    // get specific verifier using it's id \n    function getVerifier(uint _verifierId) view public returns (string, address) {\n        return (verifiers[_verifierId].verifierName, verifiers[_verifierId].verifierAddress);\n    }\n    \n    // only owner function, add legit verifier\n    //just like on fb or twitter the check logo after it's name\n    function addLegitVerifier(address _verifierAddress) onlyOwner public {\n        status[_verifierAddress] = true;\n    }\n    \n    //returns if the verifier is legit or not\n    // true == legit\n    function getLegitVerifier(address _publisherAddress) public view returns (bool) {\n        return status[_publisherAddress];\n    }\n    \n    //checks if address is a registered publisher\n    function containsPublisher(address _publisherAddress) public view returns (bool) {\n        return Publishers[_publisherAddress];\n    }\n    \n    // checks if address is registerd verifier\n    function containsVerifier(address _verifierAddress) public view returns (bool) {\n        return Publishers[_verifierAddress];\n    }\n}\n",
  "sourcePath": "/home/consensys/ethereum/libraryapp/contracts/Library.sol",
  "compiler": {
    "name": "solc",
    "version": "0.4.24+commit.e67f0147.Emscripten.clang"
  },
  "schemaVersion": "2.0.1",
  "updatedAt": "2018-11-29T03:45:11.976Z"
}